{
  "contractName": "Exchange",
  "abi": [
    {
      "constant": false,
      "inputs": [
        {
          "name": "symbolName",
          "type": "string"
        },
        {
          "name": "erc20TokenAddress",
          "type": "address"
        }
      ],
      "name": "addToken",
      "outputs": [],
      "payable": false,
      "stateMutability": "nonpayable",
      "type": "function"
    },
    {
      "constant": true,
      "inputs": [
        {
          "name": "symbolName",
          "type": "string"
        }
      ],
      "name": "hasToken",
      "outputs": [
        {
          "name": "",
          "type": "bool"
        }
      ],
      "payable": false,
      "stateMutability": "view",
      "type": "function"
    }
  ],
  "bytecode": "0x6060604052336000806101000a81548173ffffffffffffffffffffffffffffffffffffffff021916908373ffffffffffffffffffffffffffffffffffffffff160217905550610599806100536000396000f30060606040526004361061004c576000357c0100000000000000000000000000000000000000000000000000000000900463ffffffff1680638ea0081814610051578063b0b22c2c146100c6575b600080fd5b341561005c57600080fd5b6100ac600480803590602001908201803590602001908080601f01602080910402602001604051908101604052809392919081815260200183838082843782019150505050505091905050610142565b604051808215151515815260200191505060405180910390f35b34156100d157600080fd5b610140600480803590602001908201803590602001908080601f0160208091040260200160405190810160405280939291908181526020018383808284378201915050505050509190803573ffffffffffffffffffffffffffffffffffffffff16906020019091905050610170565b005b60008061014e836102bb565b905060008160ff161415610165576000915061016a565b600191505b50919050565b6000809054906101000a900473ffffffffffffffffffffffffffffffffffffffff1673ffffffffffffffffffffffffffffffffffffffff163373ffffffffffffffffffffffffffffffffffffffff1614156102b7576101ce82610142565b1515156101da57600080fd5b6002600081819054906101000a900460ff168092919060010191906101000a81548160ff021916908360ff160217905550508060016000600260009054906101000a900460ff1660ff1660ff16815260200190815260200160002060000160006101000a81548173ffffffffffffffffffffffffffffffffffffffff021916908373ffffffffffffffffffffffffffffffffffffffff1602179055508160016000600260009054906101000a900460ff1660ff1660ff16815260200190815260200160002060010190805190602001906102b59291906104b4565b505b5050565b600080600190505b600260009054906101000a900460ff1660ff168160ff1611151561032057610306600160008360ff1660ff1681526020019081526020016000206001018461032b565b1561031357809150610325565b80806001019150506102c3565b600091505b50919050565b600080610336610534565b600085925084915081518380546001816001161561010002031660029004905014151561036657600093506104ab565b600090505b828054600181600116156101000203166002900490508110156104a657818181518110151561039657fe5b9060200101517f010000000000000000000000000000000000000000000000000000000000000090047f0100000000000000000000000000000000000000000000000000000000000000027effffffffffffffffffffffffffffffffffffffffffffffffffffffffffffff19168382815460018160011615610100020316600290048110151561042257fe5b8154600116156104415790600052602060002090602091828204019190065b9054901a7f0100000000000000000000000000000000000000000000000000000000000000027effffffffffffffffffffffffffffffffffffffffffffffffffffffffffffff191614151561049957600093506104ab565b808060010191505061036b565b600193505b50505092915050565b828054600181600116156101000203166002900490600052602060002090601f016020900481019282601f106104f557805160ff1916838001178555610523565b82800160010185558215610523579182015b82811115610522578251825591602001919060010190610507565b5b5090506105309190610548565b5090565b602060405190810160405280600081525090565b61056a91905b8082111561056657600081600090555060010161054e565b5090565b905600a165627a7a72305820c4461352a3d6a536f5314bb0e5a17bf84170ff7029e4078bd8b341f2ff7d983a0029",
  "source": "pragma solidity ^0.4.18;\n\n\nimport \"./owned.sol\";\nimport \"./FixedSupplyToken.sol\";\n\ncontract Exchange is owned {\n    struct Offer {\n        \n        uint amount;\n        address buyer;\n    }\n\n    struct OrderBook {\n        \n        uint higherPrice;\n        uint lowerPrice;\n        \n        mapping (uint => Offer) offers;\n        \n        uint offers_key;\n        uint offers_length;\n    }\n\n    struct Token {\n        \n        address tokenContract;\n\n        string symbolName;\n        \n        \n        mapping (uint => OrderBook) buyBook;\n        \n        uint curBuyPrice;\n        uint lowestBuyPrice;\n        uint amountBuyPrices;\n\n\n        mapping (uint => OrderBook) sellBook;\n        uint curSellPrice;\n        uint highestSellPrice;\n        uint amountSellPrices;\n\n    }\n\n    // maximum of 255 tokens can be supported.\n    mapping (uint8 => Token) tokens;\n    uint8 symbolNameIndex;\n\n    // Balances    \n    mapping (address => mapping (uint8 => uint)) tokenBalanceForAddress;\n    mapping (address => uint) balanceEthForAddress;\n\n    // Manage Tokens\n\n    function addToken(string symbolName, address erc20TokenAddress) public onlyowner {\n        require(!hasToken(symbolName));\n        symbolNameIndex++;\n        tokens[symbolNameIndex].tokenContract = erc20TokenAddress;\n        tokens[symbolNameIndex].symbolName = symbolName;\n        \n    }\n\n    function getSymbolIndex(string symbolName) view internal returns (uint8) {\n        for (uint8 i = 1; i <= symbolNameIndex; i++) {\n            if (stringsEqual(tokens[i].symbolName, symbolName)) {\n                return i;\n            }\n        }\n        return 0;\n    }\n\n    function hasToken(string symbolName) public constant returns (bool) {\n        uint8 index = getSymbolIndex(symbolName);\n        if (index == 0) {\n            return false;\n        }\n        return true;\n    }\n\n    // String comparison\n    function stringsEqual(string storage _a, string memory _b) view internal returns (bool) {\n        // compare strings bit by bit\n        bytes storage a = bytes(_a);\n        bytes memory b = bytes(_b);\n        if (a.length != b.length)\n            return false;\n        // @TODO\n        for (uint i = 0; i < a.length; i ++) {\n            if (a[i] != b[i]) {\n                return false;\n            }\n        }\n        return true;\n    }\n}",
  "sourcePath": "/Users/sean/Dev/ethereum/dBay/contracts/Exchange.sol",
  "compiler": {
    "name": "solc",
    "version": "0.4.19+commit.c4cbbb05.Emscripten.clang"
  },
  "schemaVersion": "1.0.1",
  "updatedAt": "2018-02-26T03:04:35.448Z"
}